:1008CC00751100751200751300751105E511D3949F
:1008DC000040217512C8E512D394004013751364BF
:1008EC00E513D39400400500151380F4151280E62F
:0408FC00151180D87A
:0109000022D4
:100800007508AA750955750A00750B00750C0075F9
:100810008E007E007F008E0D8F0ED290D297750ACB
:100820003F750BFEC3E50A648094804024AE0DAF93
:100830000E8F828E83E508F0A3E509F07402250E81
:10084000F50EE4350DF50DE50B150B7002150A805C
:10085000D37E007F008E0D8F0E750A3F750BFEC391
:10086000E50A64809480402EAE0DAF0E8F828E8399
:10087000E0FEA3E0FFEF65097003EE65086002C2C9
:10088000907402250EF50EE4350DF50DE50B150BF4
:100890007002150A80C9C297750F20751000AE0F3F
:1008A000AF108F828E83E0FFEF1392911208CC0578
:1008B00010E5107002050FAE0FAF10EFB400DFEEC1
:0B08C000B450DB750F2075100080D3D2
:0108CB00220A
:03000000020901F1
:0C090100787FE4F6D8FD75811302080031
:00000001FF
